{
  "address": "0xe5f29e575d8dac0bfeb52e7ba8c073f23bb05fd1",
  "abi": [
    {
      "inputs": [
        {
          "internalType": "string",
          "name": "name_",
          "type": "string"
        },
        {
          "internalType": "string",
          "name": "symbol_",
          "type": "string"
        },
        {
          "internalType": "uint256",
          "name": "maxSupply_",
          "type": "uint256"
        }
      ],
      "stateMutability": "nonpayable",
      "type": "constructor"
    },
    {
      "inputs": [
        {
          "internalType": "address",
          "name": "sender",
          "type": "address"
        },
        {
          "internalType": "uint256",
          "name": "tokenId",
          "type": "uint256"
        },
        {
          "internalType": "address",
          "name": "owner",
          "type": "address"
        }
      ],
      "name": "ERC721IncorrectOwner",
      "type": "error"
    },
    {
      "inputs": [
        {
          "internalType": "address",
          "name": "operator",
          "type": "address"
        },
        {
          "internalType": "uint256",
          "name": "tokenId",
          "type": "uint256"
        }
      ],
      "name": "ERC721InsufficientApproval",
      "type": "error"
    },
    {
      "inputs": [
        {
          "internalType": "address",
          "name": "approver",
          "type": "address"
        }
      ],
      "name": "ERC721InvalidApprover",
      "type": "error"
    },
    {
      "inputs": [
        {
          "internalType": "address",
          "name": "operator",
          "type": "address"
        }
      ],
      "name": "ERC721InvalidOperator",
      "type": "error"
    },
    {
      "inputs": [
        {
          "internalType": "address",
          "name": "owner",
          "type": "address"
        }
      ],
      "name": "ERC721InvalidOwner",
      "type": "error"
    },
    {
      "inputs": [
        {
          "internalType": "address",
          "name": "receiver",
          "type": "address"
        }
      ],
      "name": "ERC721InvalidReceiver",
      "type": "error"
    },
    {
      "inputs": [
        {
          "internalType": "address",
          "name": "sender",
          "type": "address"
        }
      ],
      "name": "ERC721InvalidSender",
      "type": "error"
    },
    {
      "inputs": [
        {
          "internalType": "uint256",
          "name": "tokenId",
          "type": "uint256"
        }
      ],
      "name": "ERC721NonexistentToken",
      "type": "error"
    },
    {
      "inputs": [
        {
          "internalType": "uint256",
          "name": "tokenId",
          "type": "uint256"
        }
      ],
      "name": "MetaDataAlreadyBound",
      "type": "error"
    },
    {
      "inputs": [
        {
          "internalType": "address",
          "name": "owner",
          "type": "address"
        }
      ],
      "name": "OwnableInvalidOwner",
      "type": "error"
    },
    {
      "inputs": [
        {
          "internalType": "address",
          "name": "account",
          "type": "address"
        }
      ],
      "name": "OwnableUnauthorizedAccount",
      "type": "error"
    },
    {
      "anonymous": false,
      "inputs": [
        {
          "indexed": true,
          "internalType": "address",
          "name": "owner",
          "type": "address"
        },
        {
          "indexed": true,
          "internalType": "address",
          "name": "approved",
          "type": "address"
        },
        {
          "indexed": true,
          "internalType": "uint256",
          "name": "tokenId",
          "type": "uint256"
        }
      ],
      "name": "Approval",
      "type": "event"
    },
    {
      "anonymous": false,
      "inputs": [
        {
          "indexed": true,
          "internalType": "address",
          "name": "owner",
          "type": "address"
        },
        {
          "indexed": true,
          "internalType": "address",
          "name": "operator",
          "type": "address"
        },
        {
          "indexed": false,
          "internalType": "bool",
          "name": "approved",
          "type": "bool"
        }
      ],
      "name": "ApprovalForAll",
      "type": "event"
    },
    {
      "anonymous": false,
      "inputs": [
        {
          "indexed": true,
          "internalType": "address",
          "name": "previousOwner",
          "type": "address"
        },
        {
          "indexed": true,
          "internalType": "address",
          "name": "newOwner",
          "type": "address"
        }
      ],
      "name": "OwnershipTransferred",
      "type": "event"
    },
    {
      "anonymous": false,
      "inputs": [
        {
          "indexed": true,
          "internalType": "address",
          "name": "from",
          "type": "address"
        },
        {
          "indexed": true,
          "internalType": "address",
          "name": "to",
          "type": "address"
        },
        {
          "indexed": true,
          "internalType": "uint256",
          "name": "tokenId",
          "type": "uint256"
        }
      ],
      "name": "Transfer",
      "type": "event"
    },
    {
      "inputs": [
        {
          "internalType": "address",
          "name": "to",
          "type": "address"
        },
        {
          "internalType": "uint256",
          "name": "tokenId",
          "type": "uint256"
        }
      ],
      "name": "approve",
      "outputs": [],
      "stateMutability": "nonpayable",
      "type": "function"
    },
    {
      "inputs": [
        {
          "internalType": "address",
          "name": "owner",
          "type": "address"
        }
      ],
      "name": "balanceOf",
      "outputs": [
        {
          "internalType": "uint256",
          "name": "",
          "type": "uint256"
        }
      ],
      "stateMutability": "view",
      "type": "function"
    },
    {
      "inputs": [
        {
          "internalType": "uint256",
          "name": "tokenId",
          "type": "uint256"
        },
        {
          "internalType": "string",
          "name": "metaDataUrl",
          "type": "string"
        }
      ],
      "name": "bindMetaData",
      "outputs": [],
      "stateMutability": "nonpayable",
      "type": "function"
    },
    {
      "inputs": [
        {
          "internalType": "uint256",
          "name": "tokenId",
          "type": "uint256"
        }
      ],
      "name": "getApproved",
      "outputs": [
        {
          "internalType": "address",
          "name": "",
          "type": "address"
        }
      ],
      "stateMutability": "view",
      "type": "function"
    },
    {
      "inputs": [
        {
          "internalType": "address",
          "name": "owner",
          "type": "address"
        },
        {
          "internalType": "address",
          "name": "operator",
          "type": "address"
        }
      ],
      "name": "isApprovedForAll",
      "outputs": [
        {
          "internalType": "bool",
          "name": "",
          "type": "bool"
        }
      ],
      "stateMutability": "view",
      "type": "function"
    },
    {
      "inputs": [],
      "name": "maxSupply",
      "outputs": [
        {
          "internalType": "uint256",
          "name": "",
          "type": "uint256"
        }
      ],
      "stateMutability": "view",
      "type": "function"
    },
    {
      "inputs": [
        {
          "internalType": "address",
          "name": "to",
          "type": "address"
        }
      ],
      "name": "mint",
      "outputs": [],
      "stateMutability": "nonpayable",
      "type": "function"
    },
    {
      "inputs": [],
      "name": "name",
      "outputs": [
        {
          "internalType": "string",
          "name": "",
          "type": "string"
        }
      ],
      "stateMutability": "view",
      "type": "function"
    },
    {
      "inputs": [],
      "name": "owner",
      "outputs": [
        {
          "internalType": "address",
          "name": "",
          "type": "address"
        }
      ],
      "stateMutability": "view",
      "type": "function"
    },
    {
      "inputs": [
        {
          "internalType": "uint256",
          "name": "tokenId",
          "type": "uint256"
        }
      ],
      "name": "ownerOf",
      "outputs": [
        {
          "internalType": "address",
          "name": "",
          "type": "address"
        }
      ],
      "stateMutability": "view",
      "type": "function"
    },
    {
      "inputs": [],
      "name": "renounceOwnership",
      "outputs": [],
      "stateMutability": "nonpayable",
      "type": "function"
    },
    {
      "inputs": [
        {
          "internalType": "address",
          "name": "from",
          "type": "address"
        },
        {
          "internalType": "address",
          "name": "to",
          "type": "address"
        },
        {
          "internalType": "uint256",
          "name": "tokenId",
          "type": "uint256"
        }
      ],
      "name": "safeTransferFrom",
      "outputs": [],
      "stateMutability": "nonpayable",
      "type": "function"
    },
    {
      "inputs": [
        {
          "internalType": "address",
          "name": "from",
          "type": "address"
        },
        {
          "internalType": "address",
          "name": "to",
          "type": "address"
        },
        {
          "internalType": "uint256",
          "name": "tokenId",
          "type": "uint256"
        },
        {
          "internalType": "bytes",
          "name": "data",
          "type": "bytes"
        }
      ],
      "name": "safeTransferFrom",
      "outputs": [],
      "stateMutability": "nonpayable",
      "type": "function"
    },
    {
      "inputs": [
        {
          "internalType": "address",
          "name": "operator",
          "type": "address"
        },
        {
          "internalType": "bool",
          "name": "approved",
          "type": "bool"
        }
      ],
      "name": "setApprovalForAll",
      "outputs": [],
      "stateMutability": "nonpayable",
      "type": "function"
    },
    {
      "inputs": [
        {
          "internalType": "string",
          "name": "baseTokenURI_",
          "type": "string"
        }
      ],
      "name": "setBaseURI",
      "outputs": [],
      "stateMutability": "nonpayable",
      "type": "function"
    },
    {
      "inputs": [
        {
          "internalType": "bytes4",
          "name": "interfaceId",
          "type": "bytes4"
        }
      ],
      "name": "supportsInterface",
      "outputs": [
        {
          "internalType": "bool",
          "name": "",
          "type": "bool"
        }
      ],
      "stateMutability": "view",
      "type": "function"
    },
    {
      "inputs": [],
      "name": "symbol",
      "outputs": [
        {
          "internalType": "string",
          "name": "",
          "type": "string"
        }
      ],
      "stateMutability": "view",
      "type": "function"
    },
    {
      "inputs": [
        {
          "internalType": "uint256",
          "name": "tokenId",
          "type": "uint256"
        }
      ],
      "name": "tokenURI",
      "outputs": [
        {
          "internalType": "string",
          "name": "",
          "type": "string"
        }
      ],
      "stateMutability": "view",
      "type": "function"
    },
    {
      "inputs": [],
      "name": "totalSupply",
      "outputs": [
        {
          "internalType": "uint256",
          "name": "",
          "type": "uint256"
        }
      ],
      "stateMutability": "view",
      "type": "function"
    },
    {
      "inputs": [
        {
          "internalType": "address",
          "name": "from",
          "type": "address"
        },
        {
          "internalType": "address",
          "name": "to",
          "type": "address"
        },
        {
          "internalType": "uint256",
          "name": "tokenId",
          "type": "uint256"
        }
      ],
      "name": "transferFrom",
      "outputs": [],
      "stateMutability": "nonpayable",
      "type": "function"
    },
    {
      "inputs": [
        {
          "internalType": "address",
          "name": "newOwner",
          "type": "address"
        }
      ],
      "name": "transferOwnership",
      "outputs": [],
      "stateMutability": "nonpayable",
      "type": "function"
    }
  ],
  "transactionHash": "0xa5875fc881e0e01a347fec7e896cddbbe1900bfa1d7dd77f9d3c29cf0512883d",
  "args": [
    "MyERC721",
    "M721",
    10000
  ],
  "numDeployments": 1,
  "solcInputHash": "715b411e73bf70a7de0f2d38f2d533a9",
  "bytecode": "0x6080604052600060075534801561001557600080fd5b50604051612f36380380612f368339818101604052810190610037919061035e565b33838381600090816100499190610600565b5080600190816100599190610600565b505050600073ffffffffffffffffffffffffffffffffffffffff168173ffffffffffffffffffffffffffffffffffffffff16036100ce5760006040517f1e4fbdf70000000000000000000000000000000000000000000000000000000081526004016100c59190610713565b60405180910390fd5b6100dd816100ed60201b60201c565b508060098190555050505061072e565b6000600660009054906101000a900473ffffffffffffffffffffffffffffffffffffffff16905081600660006101000a81548173ffffffffffffffffffffffffffffffffffffffff021916908373ffffffffffffffffffffffffffffffffffffffff1602179055508173ffffffffffffffffffffffffffffffffffffffff168173ffffffffffffffffffffffffffffffffffffffff167f8be0079c531659141344cd1fd0a4f28419497f9722a3daafe3b4186f6b6457e060405160405180910390a35050565b6000604051905090565b600080fd5b600080fd5b600080fd5b600080fd5b6000601f19601f8301169050919050565b7f4e487b7100000000000000000000000000000000000000000000000000000000600052604160045260246000fd5b61021a826101d1565b810181811067ffffffffffffffff82111715610239576102386101e2565b5b80604052505050565b600061024c6101b3565b90506102588282610211565b919050565b600067ffffffffffffffff821115610278576102776101e2565b5b610281826101d1565b9050602081019050919050565b60005b838110156102ac578082015181840152602081019050610291565b60008484015250505050565b60006102cb6102c68461025d565b610242565b9050828152602081018484840111156102e7576102e66101cc565b5b6102f284828561028e565b509392505050565b600082601f83011261030f5761030e6101c7565b5b815161031f8482602086016102b8565b91505092915050565b6000819050919050565b61033b81610328565b811461034657600080fd5b50565b60008151905061035881610332565b92915050565b600080600060608486031215610377576103766101bd565b5b600084015167ffffffffffffffff811115610395576103946101c2565b5b6103a1868287016102fa565b935050602084015167ffffffffffffffff8111156103c2576103c16101c2565b5b6103ce868287016102fa565b92505060406103df86828701610349565b9150509250925092565b600081519050919050565b7f4e487b7100000000000000000000000000000000000000000000000000000000600052602260045260246000fd5b6000600282049050600182168061043b57607f821691505b60208210810361044e5761044d6103f4565b5b50919050565b60008190508160005260206000209050919050565b60006020601f8301049050919050565b600082821b905092915050565b6000600883026104b67fffffffffffffffffffffffffffffffffffffffffffffffffffffffffffffffff82610479565b6104c08683610479565b95508019841693508086168417925050509392505050565b6000819050919050565b60006104fd6104f86104f384610328565b6104d8565b610328565b9050919050565b6000819050919050565b610517836104e2565b61052b61052382610504565b848454610486565b825550505050565b600090565b610540610533565b61054b81848461050e565b505050565b5b8181101561056f57610564600082610538565b600181019050610551565b5050565b601f8211156105b45761058581610454565b61058e84610469565b8101602085101561059d578190505b6105b16105a985610469565b830182610550565b50505b505050565b600082821c905092915050565b60006105d7600019846008026105b9565b1980831691505092915050565b60006105f083836105c6565b9150826002028217905092915050565b610609826103e9565b67ffffffffffffffff811115610622576106216101e2565b5b61062c8254610423565b610637828285610573565b600060209050601f83116001811461066a5760008415610658578287015190505b61066285826105e4565b8655506106ca565b601f19841661067886610454565b60005b828110156106a05784890151825560018201915060208501945060208101905061067b565b868310156106bd57848901516106b9601f8916826105c6565b8355505b6001600288020188555050505b505050505050565b600073ffffffffffffffffffffffffffffffffffffffff82169050919050565b60006106fd826106d2565b9050919050565b61070d816106f2565b82525050565b60006020820190506107286000830184610704565b92915050565b6127f98061073d6000396000f3fe608060405234801561001057600080fd5b50600436106101375760003560e01c80636a627842116100b8578063a22cb4651161007c578063a22cb46514610326578063b88d4fde14610342578063c87b56dd1461035e578063d5abeb011461038e578063e985e9c5146103ac578063f2fde38b146103dc57610137565b80636a6278421461029457806370a08231146102b0578063715018a6146102e05780638da5cb5b146102ea57806395d89b411461030857610137565b806323b872dd116100ff57806323b872dd146101f457806342842e0e1461021057806355f804b31461022c5780635b155839146102485780636352211e1461026457610137565b806301ffc9a71461013c57806306fdde031461016c578063081812fc1461018a578063095ea7b3146101ba57806318160ddd146101d6575b600080fd5b61015660048036038101906101519190611a59565b6103f8565b6040516101639190611aa1565b60405180910390f35b6101746104da565b6040516101819190611b4c565b60405180910390f35b6101a4600480360381019061019f9190611ba4565b61056c565b6040516101b19190611c12565b60405180910390f35b6101d460048036038101906101cf9190611c59565b610588565b005b6101de61059e565b6040516101eb9190611ca8565b60405180910390f35b61020e60048036038101906102099190611cc3565b6105a8565b005b61022a60048036038101906102259190611cc3565b6106aa565b005b61024660048036038101906102419190611e4b565b6106ca565b005b610262600480360381019061025d9190611e94565b6106e5565b005b61027e60048036038101906102799190611ba4565b61086f565b60405161028b9190611c12565b60405180910390f35b6102ae60048036038101906102a99190611ef0565b610881565b005b6102ca60048036038101906102c59190611ef0565b610901565b6040516102d79190611ca8565b60405180910390f35b6102e86109bb565b005b6102f26109cf565b6040516102ff9190611c12565b60405180910390f35b6103106109f9565b60405161031d9190611b4c565b60405180910390f35b610340600480360381019061033b9190611f49565b610a8b565b005b61035c6004803603810190610357919061202a565b610aa1565b005b61037860048036038101906103739190611ba4565b610ac6565b6040516103859190611b4c565b60405180910390f35b610396610be2565b6040516103a39190611ca8565b60405180910390f35b6103c660048036038101906103c191906120ad565b610be8565b6040516103d39190611aa1565b60405180910390f35b6103f660048036038101906103f19190611ef0565b610c7c565b005b60007f80ac58cd000000000000000000000000000000000000000000000000000000007bffffffffffffffffffffffffffffffffffffffffffffffffffffffff1916827bffffffffffffffffffffffffffffffffffffffffffffffffffffffff191614806104c357507f5b5e139f000000000000000000000000000000000000000000000000000000007bffffffffffffffffffffffffffffffffffffffffffffffffffffffff1916827bffffffffffffffffffffffffffffffffffffffffffffffffffffffff1916145b806104d357506104d282610d02565b5b9050919050565b6060600080546104e99061211c565b80601f01602080910402602001604051908101604052809291908181526020018280546105159061211c565b80156105625780601f1061053757610100808354040283529160200191610562565b820191906000526020600020905b81548152906001019060200180831161054557829003601f168201915b5050505050905090565b600061057782610d6c565b5061058182610df4565b9050919050565b61059a8282610595610e31565b610e39565b5050565b6000600754905090565b600073ffffffffffffffffffffffffffffffffffffffff168273ffffffffffffffffffffffffffffffffffffffff160361061a5760006040517f64a0ae920000000000000000000000000000000000000000000000000000000081526004016106119190611c12565b60405180910390fd5b600061062e8383610629610e31565b610e4b565b90508373ffffffffffffffffffffffffffffffffffffffff168173ffffffffffffffffffffffffffffffffffffffff16146106a4578382826040517f64283d7b00000000000000000000000000000000000000000000000000000000815260040161069b9392919061214d565b60405180910390fd5b50505050565b6106c583838360405180602001604052806000815250610aa1565b505050565b6106d2611065565b80600890816106e19190612330565b5050565b6000151561070260405180602001604052806000815250836110ec565b151514610744576040517f08c379a000000000000000000000000000000000000000000000000000000000815260040161073b9061244e565b60405180910390fd5b600061074f83611145565b9050600073ffffffffffffffffffffffffffffffffffffffff168173ffffffffffffffffffffffffffffffffffffffff16036107c257826040517f7e2732890000000000000000000000000000000000000000000000000000000081526004016107b99190611ca8565b60405180910390fd5b6000600a600085815260200190815260200160002080546107e29061211c565b9050111561082757826040517f75bf641b00000000000000000000000000000000000000000000000000000000815260040161081e9190611ca8565b60405180910390fd5b60088260405160200161083b92919061252d565b604051602081830303815290604052600a600085815260200190815260200160002090816108699190612330565b50505050565b600061087a82610d6c565b9050919050565b600060095414806108955750600954600754105b6108d4576040517f08c379a00000000000000000000000000000000000000000000000000000000081526004016108cb9061259d565b60405180910390fd5b60006007549050600760008154809291906108ee906125ec565b91905055506108fd8282611182565b5050565b60008073ffffffffffffffffffffffffffffffffffffffff168273ffffffffffffffffffffffffffffffffffffffff16036109745760006040517f89c62b6400000000000000000000000000000000000000000000000000000000815260040161096b9190611c12565b60405180910390fd5b600360008373ffffffffffffffffffffffffffffffffffffffff1673ffffffffffffffffffffffffffffffffffffffff168152602001908152602001600020549050919050565b6109c3611065565b6109cd60006111a0565b565b6000600660009054906101000a900473ffffffffffffffffffffffffffffffffffffffff16905090565b606060018054610a089061211c565b80601f0160208091040260200160405190810160405280929190818152602001828054610a349061211c565b8015610a815780601f10610a5657610100808354040283529160200191610a81565b820191906000526020600020905b815481529060010190602001808311610a6457829003601f168201915b5050505050905090565b610a9d610a96610e31565b8383611266565b5050565b610aac8484846105a8565b610ac0610ab7610e31565b858585856113d5565b50505050565b6060600073ffffffffffffffffffffffffffffffffffffffff16610ae983611145565b73ffffffffffffffffffffffffffffffffffffffff1603610b3f576040517f08c379a0000000000000000000000000000000000000000000000000000000008152600401610b3690612680565b60405180910390fd5b600a60008381526020019081526020016000208054610b5d9061211c565b80601f0160208091040260200160405190810160405280929190818152602001828054610b899061211c565b8015610bd65780601f10610bab57610100808354040283529160200191610bd6565b820191906000526020600020905b815481529060010190602001808311610bb957829003601f168201915b50505050509050919050565b60095481565b6000600560008473ffffffffffffffffffffffffffffffffffffffff1673ffffffffffffffffffffffffffffffffffffffff16815260200190815260200160002060008373ffffffffffffffffffffffffffffffffffffffff1673ffffffffffffffffffffffffffffffffffffffff16815260200190815260200160002060009054906101000a900460ff16905092915050565b610c84611065565b600073ffffffffffffffffffffffffffffffffffffffff168173ffffffffffffffffffffffffffffffffffffffff1603610cf65760006040517f1e4fbdf7000000000000000000000000000000000000000000000000000000008152600401610ced9190611c12565b60405180910390fd5b610cff816111a0565b50565b60007f01ffc9a7000000000000000000000000000000000000000000000000000000007bffffffffffffffffffffffffffffffffffffffffffffffffffffffff1916827bffffffffffffffffffffffffffffffffffffffffffffffffffffffff1916149050919050565b600080610d7883611145565b9050600073ffffffffffffffffffffffffffffffffffffffff168173ffffffffffffffffffffffffffffffffffffffff1603610deb57826040517f7e273289000000000000000000000000000000000000000000000000000000008152600401610de29190611ca8565b60405180910390fd5b80915050919050565b60006004600083815260200190815260200160002060009054906101000a900473ffffffffffffffffffffffffffffffffffffffff169050919050565b600033905090565b610e468383836001611586565b505050565b600080610e5784611145565b9050600073ffffffffffffffffffffffffffffffffffffffff168373ffffffffffffffffffffffffffffffffffffffff1614610e9957610e9881848661174b565b5b600073ffffffffffffffffffffffffffffffffffffffff168173ffffffffffffffffffffffffffffffffffffffff1614610f2a57610edb600085600080611586565b6001600360008373ffffffffffffffffffffffffffffffffffffffff1673ffffffffffffffffffffffffffffffffffffffff168152602001908152602001600020600082825403925050819055505b600073ffffffffffffffffffffffffffffffffffffffff168573ffffffffffffffffffffffffffffffffffffffff1614610fad576001600360008773ffffffffffffffffffffffffffffffffffffffff1673ffffffffffffffffffffffffffffffffffffffff168152602001908152602001600020600082825401925050819055505b846002600086815260200190815260200160002060006101000a81548173ffffffffffffffffffffffffffffffffffffffff021916908373ffffffffffffffffffffffffffffffffffffffff160217905550838573ffffffffffffffffffffffffffffffffffffffff168273ffffffffffffffffffffffffffffffffffffffff167fddf252ad1be2c89b69c2b068fc378daa952ba7f163c4a11628f55a4df523b3ef60405160405180910390a4809150509392505050565b61106d610e31565b73ffffffffffffffffffffffffffffffffffffffff1661108b6109cf565b73ffffffffffffffffffffffffffffffffffffffff16146110ea576110ae610e31565b6040517f118cdaa70000000000000000000000000000000000000000000000000000000081526004016110e19190611c12565b60405180910390fd5b565b6000816040516020016110ff91906126a0565b604051602081830303815290604052805190602001208360405160200161112691906126a0565b6040516020818303038152906040528051906020012014905092915050565b60006002600083815260200190815260200160002060009054906101000a900473ffffffffffffffffffffffffffffffffffffffff169050919050565b61119c82826040518060200160405280600081525061180f565b5050565b6000600660009054906101000a900473ffffffffffffffffffffffffffffffffffffffff16905081600660006101000a81548173ffffffffffffffffffffffffffffffffffffffff021916908373ffffffffffffffffffffffffffffffffffffffff1602179055508173ffffffffffffffffffffffffffffffffffffffff168173ffffffffffffffffffffffffffffffffffffffff167f8be0079c531659141344cd1fd0a4f28419497f9722a3daafe3b4186f6b6457e060405160405180910390a35050565b600073ffffffffffffffffffffffffffffffffffffffff168273ffffffffffffffffffffffffffffffffffffffff16036112d757816040517f5b08ba180000000000000000000000000000000000000000000000000000000081526004016112ce9190611c12565b60405180910390fd5b80600560008573ffffffffffffffffffffffffffffffffffffffff1673ffffffffffffffffffffffffffffffffffffffff16815260200190815260200160002060008473ffffffffffffffffffffffffffffffffffffffff1673ffffffffffffffffffffffffffffffffffffffff16815260200190815260200160002060006101000a81548160ff0219169083151502179055508173ffffffffffffffffffffffffffffffffffffffff168373ffffffffffffffffffffffffffffffffffffffff167f17307eab39ab6107e8899845ad3d59bd9653f200f220920489ca2b5937696c31836040516113c89190611aa1565b60405180910390a3505050565b60008373ffffffffffffffffffffffffffffffffffffffff163b111561157f578273ffffffffffffffffffffffffffffffffffffffff1663150b7a02868685856040518563ffffffff1660e01b8152600401611434949392919061270c565b6020604051808303816000875af192505050801561147057506040513d601f19601f8201168201806040525081019061146d919061276d565b60015b6114f4573d80600081146114a0576040519150601f19603f3d011682016040523d82523d6000602084013e6114a5565b606091505b5060008151036114ec57836040517f64a0ae920000000000000000000000000000000000000000000000000000000081526004016114e39190611c12565b60405180910390fd5b805160208201fd5b63150b7a0260e01b7bffffffffffffffffffffffffffffffffffffffffffffffffffffffff1916817bffffffffffffffffffffffffffffffffffffffffffffffffffffffff19161461157d57836040517f64a0ae920000000000000000000000000000000000000000000000000000000081526004016115749190611c12565b60405180910390fd5b505b5050505050565b80806115bf5750600073ffffffffffffffffffffffffffffffffffffffff168273ffffffffffffffffffffffffffffffffffffffff1614155b156116f35760006115cf84610d6c565b9050600073ffffffffffffffffffffffffffffffffffffffff168373ffffffffffffffffffffffffffffffffffffffff161415801561163a57508273ffffffffffffffffffffffffffffffffffffffff168173ffffffffffffffffffffffffffffffffffffffff1614155b801561164d575061164b8184610be8565b155b1561168f57826040517fa9fbf51f0000000000000000000000000000000000000000000000000000000081526004016116869190611c12565b60405180910390fd5b81156116f157838573ffffffffffffffffffffffffffffffffffffffff168273ffffffffffffffffffffffffffffffffffffffff167f8c5be1e5ebec7d5bd14f71427d1e84f3dd0314c0f7b2291e5b200ac8c7c3b92560405160405180910390a45b505b836004600085815260200190815260200160002060006101000a81548173ffffffffffffffffffffffffffffffffffffffff021916908373ffffffffffffffffffffffffffffffffffffffff16021790555050505050565b611756838383611833565b61180a57600073ffffffffffffffffffffffffffffffffffffffff168373ffffffffffffffffffffffffffffffffffffffff16036117cb57806040517f7e2732890000000000000000000000000000000000000000000000000000000081526004016117c29190611ca8565b60405180910390fd5b81816040517f177e802f00000000000000000000000000000000000000000000000000000000815260040161180192919061279a565b60405180910390fd5b505050565b61181983836118f4565b61182e611824610e31565b60008585856113d5565b505050565b60008073ffffffffffffffffffffffffffffffffffffffff168373ffffffffffffffffffffffffffffffffffffffff16141580156118eb57508273ffffffffffffffffffffffffffffffffffffffff168473ffffffffffffffffffffffffffffffffffffffff1614806118ac57506118ab8484610be8565b5b806118ea57508273ffffffffffffffffffffffffffffffffffffffff166118d283610df4565b73ffffffffffffffffffffffffffffffffffffffff16145b5b90509392505050565b600073ffffffffffffffffffffffffffffffffffffffff168273ffffffffffffffffffffffffffffffffffffffff16036119665760006040517f64a0ae9200000000000000000000000000000000000000000000000000000000815260040161195d9190611c12565b60405180910390fd5b600061197483836000610e4b565b9050600073ffffffffffffffffffffffffffffffffffffffff168173ffffffffffffffffffffffffffffffffffffffff16146119e85760006040517f73c6ac6e0000000000000000000000000000000000000000000000000000000081526004016119df9190611c12565b60405180910390fd5b505050565b6000604051905090565b600080fd5b600080fd5b60007fffffffff0000000000000000000000000000000000000000000000000000000082169050919050565b611a3681611a01565b8114611a4157600080fd5b50565b600081359050611a5381611a2d565b92915050565b600060208284031215611a6f57611a6e6119f7565b5b6000611a7d84828501611a44565b91505092915050565b60008115159050919050565b611a9b81611a86565b82525050565b6000602082019050611ab66000830184611a92565b92915050565b600081519050919050565b600082825260208201905092915050565b60005b83811015611af6578082015181840152602081019050611adb565b60008484015250505050565b6000601f19601f8301169050919050565b6000611b1e82611abc565b611b288185611ac7565b9350611b38818560208601611ad8565b611b4181611b02565b840191505092915050565b60006020820190508181036000830152611b668184611b13565b905092915050565b6000819050919050565b611b8181611b6e565b8114611b8c57600080fd5b50565b600081359050611b9e81611b78565b92915050565b600060208284031215611bba57611bb96119f7565b5b6000611bc884828501611b8f565b91505092915050565b600073ffffffffffffffffffffffffffffffffffffffff82169050919050565b6000611bfc82611bd1565b9050919050565b611c0c81611bf1565b82525050565b6000602082019050611c276000830184611c03565b92915050565b611c3681611bf1565b8114611c4157600080fd5b50565b600081359050611c5381611c2d565b92915050565b60008060408385031215611c7057611c6f6119f7565b5b6000611c7e85828601611c44565b9250506020611c8f85828601611b8f565b9150509250929050565b611ca281611b6e565b82525050565b6000602082019050611cbd6000830184611c99565b92915050565b600080600060608486031215611cdc57611cdb6119f7565b5b6000611cea86828701611c44565b9350506020611cfb86828701611c44565b9250506040611d0c86828701611b8f565b9150509250925092565b600080fd5b600080fd5b7f4e487b7100000000000000000000000000000000000000000000000000000000600052604160045260246000fd5b611d5882611b02565b810181811067ffffffffffffffff82111715611d7757611d76611d20565b5b80604052505050565b6000611d8a6119ed565b9050611d968282611d4f565b919050565b600067ffffffffffffffff821115611db657611db5611d20565b5b611dbf82611b02565b9050602081019050919050565b82818337600083830152505050565b6000611dee611de984611d9b565b611d80565b905082815260208101848484011115611e0a57611e09611d1b565b5b611e15848285611dcc565b509392505050565b600082601f830112611e3257611e31611d16565b5b8135611e42848260208601611ddb565b91505092915050565b600060208284031215611e6157611e606119f7565b5b600082013567ffffffffffffffff811115611e7f57611e7e6119fc565b5b611e8b84828501611e1d565b91505092915050565b60008060408385031215611eab57611eaa6119f7565b5b6000611eb985828601611b8f565b925050602083013567ffffffffffffffff811115611eda57611ed96119fc565b5b611ee685828601611e1d565b9150509250929050565b600060208284031215611f0657611f056119f7565b5b6000611f1484828501611c44565b91505092915050565b611f2681611a86565b8114611f3157600080fd5b50565b600081359050611f4381611f1d565b92915050565b60008060408385031215611f6057611f5f6119f7565b5b6000611f6e85828601611c44565b9250506020611f7f85828601611f34565b9150509250929050565b600067ffffffffffffffff821115611fa457611fa3611d20565b5b611fad82611b02565b9050602081019050919050565b6000611fcd611fc884611f89565b611d80565b905082815260208101848484011115611fe957611fe8611d1b565b5b611ff4848285611dcc565b509392505050565b600082601f83011261201157612010611d16565b5b8135612021848260208601611fba565b91505092915050565b60008060008060808587031215612044576120436119f7565b5b600061205287828801611c44565b945050602061206387828801611c44565b935050604061207487828801611b8f565b925050606085013567ffffffffffffffff811115612095576120946119fc565b5b6120a187828801611ffc565b91505092959194509250565b600080604083850312156120c4576120c36119f7565b5b60006120d285828601611c44565b92505060206120e385828601611c44565b9150509250929050565b7f4e487b7100000000000000000000000000000000000000000000000000000000600052602260045260246000fd5b6000600282049050600182168061213457607f821691505b602082108103612147576121466120ed565b5b50919050565b60006060820190506121626000830186611c03565b61216f6020830185611c99565b61217c6040830184611c03565b949350505050565b60008190508160005260206000209050919050565b60006020601f8301049050919050565b600082821b905092915050565b6000600883026121e67fffffffffffffffffffffffffffffffffffffffffffffffffffffffffffffffff826121a9565b6121f086836121a9565b95508019841693508086168417925050509392505050565b6000819050919050565b600061222d61222861222384611b6e565b612208565b611b6e565b9050919050565b6000819050919050565b61224783612212565b61225b61225382612234565b8484546121b6565b825550505050565b600090565b612270612263565b61227b81848461223e565b505050565b5b8181101561229f57612294600082612268565b600181019050612281565b5050565b601f8211156122e4576122b581612184565b6122be84612199565b810160208510156122cd578190505b6122e16122d985612199565b830182612280565b50505b505050565b600082821c905092915050565b6000612307600019846008026122e9565b1980831691505092915050565b600061232083836122f6565b9150826002028217905092915050565b61233982611abc565b67ffffffffffffffff81111561235257612351611d20565b5b61235c825461211c565b6123678282856122a3565b600060209050601f83116001811461239a5760008415612388578287015190505b6123928582612314565b8655506123fa565b601f1984166123a886612184565b60005b828110156123d0578489015182556001820191506020850194506020810190506123ab565b868310156123ed57848901516123e9601f8916826122f6565b8355505b6001600288020188555050505b505050505050565b7f4d65746120646174612075726c20697320656d70747900000000000000000000600082015250565b6000612438601683611ac7565b915061244382612402565b602082019050919050565b600060208201905081810360008301526124678161242b565b9050919050565b600081905092915050565b600081546124868161211c565b612490818661246e565b945060018216600081146124ab57600181146124c0576124f3565b60ff19831686528115158202860193506124f3565b6124c985612184565b60005b838110156124eb578154818901526001820191506020810190506124cc565b838801955050505b50505092915050565b600061250782611abc565b612511818561246e565b9350612521818560208601611ad8565b80840191505092915050565b60006125398285612479565b915061254582846124fc565b91508190509392505050565b7f4d617820737570706c7920726561636865640000000000000000000000000000600082015250565b6000612587601283611ac7565b915061259282612551565b602082019050919050565b600060208201905081810360008301526125b68161257a565b9050919050565b7f4e487b7100000000000000000000000000000000000000000000000000000000600052601160045260246000fd5b60006125f782611b6e565b91507fffffffffffffffffffffffffffffffffffffffffffffffffffffffffffffffff8203612629576126286125bd565b5b600182019050919050565b7f546f6b656e206e6f74206d696e74656400000000000000000000000000000000600082015250565b600061266a601083611ac7565b915061267582612634565b602082019050919050565b600060208201905081810360008301526126998161265d565b9050919050565b60006126ac82846124fc565b915081905092915050565b600081519050919050565b600082825260208201905092915050565b60006126de826126b7565b6126e881856126c2565b93506126f8818560208601611ad8565b61270181611b02565b840191505092915050565b60006080820190506127216000830187611c03565b61272e6020830186611c03565b61273b6040830185611c99565b818103606083015261274d81846126d3565b905095945050505050565b60008151905061276781611a2d565b92915050565b600060208284031215612783576127826119f7565b5b600061279184828501612758565b91505092915050565b60006040820190506127af6000830185611c03565b6127bc6020830184611c99565b939250505056fea26469706673582212204905dfc2f222d6c580354d22a96a0a10afb73a08dc79e9a075aba2319460634264736f6c634300081e0033",
  "devdoc": {
    "details": "ERC721 ",
    "errors": {
      "ERC721IncorrectOwner(address,uint256,address)": [
        {
          "details": "Indicates an error related to the ownership over a particular token. Used in transfers.",
          "params": {
            "owner": "Address of the current owner of a token.",
            "sender": "Address whose tokens are being transferred.",
            "tokenId": "Identifier number of a token."
          }
        }
      ],
      "ERC721InsufficientApproval(address,uint256)": [
        {
          "details": "Indicates a failure with the `operator`s approval. Used in transfers.",
          "params": {
            "operator": "Address that may be allowed to operate on tokens without being their owner.",
            "tokenId": "Identifier number of a token."
          }
        }
      ],
      "ERC721InvalidApprover(address)": [
        {
          "details": "Indicates a failure with the `approver` of a token to be approved. Used in approvals.",
          "params": {
            "approver": "Address initiating an approval operation."
          }
        }
      ],
      "ERC721InvalidOperator(address)": [
        {
          "details": "Indicates a failure with the `operator` to be approved. Used in approvals.",
          "params": {
            "operator": "Address that may be allowed to operate on tokens without being their owner."
          }
        }
      ],
      "ERC721InvalidOwner(address)": [
        {
          "details": "Indicates that an address can't be an owner. For example, `address(0)` is a forbidden owner in ERC-20. Used in balance queries.",
          "params": {
            "owner": "Address of the current owner of a token."
          }
        }
      ],
      "ERC721InvalidReceiver(address)": [
        {
          "details": "Indicates a failure with the token `receiver`. Used in transfers.",
          "params": {
            "receiver": "Address to which tokens are being transferred."
          }
        }
      ],
      "ERC721InvalidSender(address)": [
        {
          "details": "Indicates a failure with the token `sender`. Used in transfers.",
          "params": {
            "sender": "Address whose tokens are being transferred."
          }
        }
      ],
      "ERC721NonexistentToken(uint256)": [
        {
          "details": "Indicates a `tokenId` whose `owner` is the zero address.",
          "params": {
            "tokenId": "Identifier number of a token."
          }
        }
      ],
      "MetaDataAlreadyBound(uint256)": [
        {
          "details": "Indicates a `tokenId` whose metadata is already bound.",
          "params": {
            "tokenId": "Identifier number of a token."
          }
        }
      ],
      "OwnableInvalidOwner(address)": [
        {
          "details": "The owner is not a valid owner account. (eg. `address(0)`)"
        }
      ],
      "OwnableUnauthorizedAccount(address)": [
        {
          "details": "The caller account is not authorized to perform an operation."
        }
      ]
    },
    "events": {
      "Approval(address,address,uint256)": {
        "details": "Emitted when `owner` enables `approved` to manage the `tokenId` token."
      },
      "ApprovalForAll(address,address,bool)": {
        "details": "Emitted when `owner` enables or disables (`approved`) `operator` to manage all of its assets."
      },
      "Transfer(address,address,uint256)": {
        "details": "Emitted when `tokenId` token is transferred from `from` to `to`."
      }
    },
    "kind": "dev",
    "methods": {
      "approve(address,uint256)": {
        "details": "Gives permission to `to` to transfer `tokenId` token to another account. The approval is cleared when the token is transferred. Only a single account can be approved at a time, so approving the zero address clears previous approvals. Requirements: - The caller must own the token or be an approved operator. - `tokenId` must exist. Emits an {Approval} event."
      },
      "balanceOf(address)": {
        "details": "Returns the number of tokens in ``owner``'s account."
      },
      "bindMetaData(uint256,string)": {
        "details": "ID",
        "params": {
          "metaDataUrl": "URL",
          "tokenId": "ID"
        }
      },
      "constructor": {
        "details": "",
        "params": {
          "maxSupply_": "0",
          "name_": "",
          "symbol_": ""
        }
      },
      "getApproved(uint256)": {
        "details": "Returns the account approved for `tokenId` token. Requirements: - `tokenId` must exist."
      },
      "isApprovedForAll(address,address)": {
        "details": "Returns if the `operator` is allowed to manage all of the assets of `owner`. See {setApprovalForAll}"
      },
      "mint(address)": {
        "details": "NFT",
        "params": {
          "to": ""
        }
      },
      "name()": {
        "details": "Returns the token collection name."
      },
      "owner()": {
        "details": "Returns the address of the current owner."
      },
      "ownerOf(uint256)": {
        "details": "Returns the owner of the `tokenId` token. Requirements: - `tokenId` must exist."
      },
      "renounceOwnership()": {
        "details": "Leaves the contract without owner. It will not be possible to call `onlyOwner` functions. Can only be called by the current owner. NOTE: Renouncing ownership will leave the contract without an owner, thereby disabling any functionality that is only available to the owner."
      },
      "safeTransferFrom(address,address,uint256)": {
        "details": "Safely transfers `tokenId` token from `from` to `to`, checking first that contract recipients are aware of the ERC-721 protocol to prevent tokens from being forever locked. Requirements: - `from` cannot be the zero address. - `to` cannot be the zero address. - `tokenId` token must exist and be owned by `from`. - If the caller is not `from`, it must have been allowed to move this token by either {approve} or   {setApprovalForAll}. - If `to` refers to a smart contract, it must implement {IERC721Receiver-onERC721Received}, which is called upon   a safe transfer. Emits a {Transfer} event."
      },
      "safeTransferFrom(address,address,uint256,bytes)": {
        "details": "Safely transfers `tokenId` token from `from` to `to`. Requirements: - `from` cannot be the zero address. - `to` cannot be the zero address. - `tokenId` token must exist and be owned by `from`. - If the caller is not `from`, it must be approved to move this token by either {approve} or {setApprovalForAll}. - If `to` refers to a smart contract, it must implement {IERC721Receiver-onERC721Received}, which is called upon   a safe transfer. Emits a {Transfer} event."
      },
      "setApprovalForAll(address,bool)": {
        "details": "Approve or remove `operator` as an operator for the caller. Operators can call {transferFrom} or {safeTransferFrom} for any token owned by the caller. Requirements: - The `operator` cannot be the address zero. Emits an {ApprovalForAll} event."
      },
      "setBaseURI(string)": {
        "details": "URI",
        "params": {
          "baseTokenURI_": "URI"
        }
      },
      "supportsInterface(bytes4)": {
        "details": "Returns true if this contract implements the interface defined by `interfaceId`. See the corresponding https://eips.ethereum.org/EIPS/eip-165#how-interfaces-are-identified[ERC section] to learn more about how these ids are created. This function call must use less than 30 000 gas."
      },
      "symbol()": {
        "details": "Returns the token collection symbol."
      },
      "tokenURI(uint256)": {
        "details": "tokenURI",
        "params": {
          "tokenId": "ID"
        }
      },
      "totalSupply()": {
        "details": ""
      },
      "transferFrom(address,address,uint256)": {
        "details": "Transfers `tokenId` token from `from` to `to`. WARNING: Note that the caller is responsible to confirm that the recipient is capable of receiving ERC-721 or else they may be permanently lost. Usage of {safeTransferFrom} prevents loss, though the caller must understand this adds an external call which potentially creates a reentrancy vulnerability. Requirements: - `from` cannot be the zero address. - `to` cannot be the zero address. - `tokenId` token must be owned by `from`. - If the caller is not `from`, it must be approved to move this token by either {approve} or {setApprovalForAll}. Emits a {Transfer} event."
      },
      "transferOwnership(address)": {
        "details": "Transfers ownership of the contract to a new account (`newOwner`). Can only be called by the current owner."
      }
    },
    "title": "ClassicERC721",
    "version": 1
  },
  "userdoc": {
    "kind": "user",
    "methods": {},
    "version": 1
  },
  "storageLayout": {
    "storage": [
      {
        "astId": 317,
        "contract": "contracts/ERC721/MyERC721.sol:MyERC721",
        "label": "_name",
        "offset": 0,
        "slot": "0",
        "type": "t_string_storage"
      },
      {
        "astId": 319,
        "contract": "contracts/ERC721/MyERC721.sol:MyERC721",
        "label": "_symbol",
        "offset": 0,
        "slot": "1",
        "type": "t_string_storage"
      },
      {
        "astId": 323,
        "contract": "contracts/ERC721/MyERC721.sol:MyERC721",
        "label": "_owners",
        "offset": 0,
        "slot": "2",
        "type": "t_mapping(t_uint256,t_address)"
      },
      {
        "astId": 327,
        "contract": "contracts/ERC721/MyERC721.sol:MyERC721",
        "label": "_balances",
        "offset": 0,
        "slot": "3",
        "type": "t_mapping(t_address,t_uint256)"
      },
      {
        "astId": 331,
        "contract": "contracts/ERC721/MyERC721.sol:MyERC721",
        "label": "_tokenApprovals",
        "offset": 0,
        "slot": "4",
        "type": "t_mapping(t_uint256,t_address)"
      },
      {
        "astId": 337,
        "contract": "contracts/ERC721/MyERC721.sol:MyERC721",
        "label": "_operatorApprovals",
        "offset": 0,
        "slot": "5",
        "type": "t_mapping(t_address,t_mapping(t_address,t_bool))"
      },
      {
        "astId": 8,
        "contract": "contracts/ERC721/MyERC721.sol:MyERC721",
        "label": "_owner",
        "offset": 0,
        "slot": "6",
        "type": "t_address"
      },
      {
        "astId": 6548,
        "contract": "contracts/ERC721/MyERC721.sol:MyERC721",
        "label": "_tokenIdCounter",
        "offset": 0,
        "slot": "7",
        "type": "t_uint256"
      },
      {
        "astId": 6550,
        "contract": "contracts/ERC721/MyERC721.sol:MyERC721",
        "label": "_baseTokenURI",
        "offset": 0,
        "slot": "8",
        "type": "t_string_storage"
      },
      {
        "astId": 6552,
        "contract": "contracts/ERC721/MyERC721.sol:MyERC721",
        "label": "maxSupply",
        "offset": 0,
        "slot": "9",
        "type": "t_uint256"
      },
      {
        "astId": 6556,
        "contract": "contracts/ERC721/MyERC721.sol:MyERC721",
        "label": "_tokenMetaData",
        "offset": 0,
        "slot": "10",
        "type": "t_mapping(t_uint256,t_string_storage)"
      }
    ],
    "types": {
      "t_address": {
        "encoding": "inplace",
        "label": "address",
        "numberOfBytes": "20"
      },
      "t_bool": {
        "encoding": "inplace",
        "label": "bool",
        "numberOfBytes": "1"
      },
      "t_mapping(t_address,t_bool)": {
        "encoding": "mapping",
        "key": "t_address",
        "label": "mapping(address => bool)",
        "numberOfBytes": "32",
        "value": "t_bool"
      },
      "t_mapping(t_address,t_mapping(t_address,t_bool))": {
        "encoding": "mapping",
        "key": "t_address",
        "label": "mapping(address => mapping(address => bool))",
        "numberOfBytes": "32",
        "value": "t_mapping(t_address,t_bool)"
      },
      "t_mapping(t_address,t_uint256)": {
        "encoding": "mapping",
        "key": "t_address",
        "label": "mapping(address => uint256)",
        "numberOfBytes": "32",
        "value": "t_uint256"
      },
      "t_mapping(t_uint256,t_address)": {
        "encoding": "mapping",
        "key": "t_uint256",
        "label": "mapping(uint256 => address)",
        "numberOfBytes": "32",
        "value": "t_address"
      },
      "t_mapping(t_uint256,t_string_storage)": {
        "encoding": "mapping",
        "key": "t_uint256",
        "label": "mapping(uint256 => string)",
        "numberOfBytes": "32",
        "value": "t_string_storage"
      },
      "t_string_storage": {
        "encoding": "bytes",
        "label": "string",
        "numberOfBytes": "32"
      },
      "t_uint256": {
        "encoding": "inplace",
        "label": "uint256",
        "numberOfBytes": "32"
      }
    }
  }
}